{
  "_format": "hh-sol-artifact-1",
  "contractName": "SamhitaToken",
  "sourceName": "contracts/SamhitaToken.sol",
  "abi": [
    {
      "inputs": [
        {
          "internalType": "string",
          "name": "_tokenName",
          "type": "string"
        },
        {
          "internalType": "string",
          "name": "_tokenSymbol",
          "type": "string"
        },
        {
          "internalType": "uint256",
          "name": "_initialSupplyToOwner",
          "type": "uint256"
        }
      ],
      "stateMutability": "nonpayable",
      "type": "constructor"
    },
    {
      "anonymous": false,
      "inputs": [
        {
          "indexed": true,
          "internalType": "address",
          "name": "owner",
          "type": "address"
        },
        {
          "indexed": true,
          "internalType": "address",
          "name": "spender",
          "type": "address"
        },
        {
          "indexed": false,
          "internalType": "uint256",
          "name": "value",
          "type": "uint256"
        }
      ],
      "name": "Approval",
      "type": "event"
    },
    {
      "anonymous": false,
      "inputs": [
        {
          "indexed": true,
          "internalType": "address",
          "name": "previousOwner",
          "type": "address"
        },
        {
          "indexed": true,
          "internalType": "address",
          "name": "newOwner",
          "type": "address"
        }
      ],
      "name": "OwnershipTransferred",
      "type": "event"
    },
    {
      "anonymous": false,
      "inputs": [
        {
          "indexed": true,
          "internalType": "address",
          "name": "from",
          "type": "address"
        },
        {
          "indexed": true,
          "internalType": "address",
          "name": "to",
          "type": "address"
        },
        {
          "indexed": false,
          "internalType": "uint256",
          "name": "value",
          "type": "uint256"
        }
      ],
      "name": "Transfer",
      "type": "event"
    },
    {
      "inputs": [
        {
          "internalType": "address",
          "name": "owner",
          "type": "address"
        },
        {
          "internalType": "address",
          "name": "spender",
          "type": "address"
        }
      ],
      "name": "allowance",
      "outputs": [
        {
          "internalType": "uint256",
          "name": "",
          "type": "uint256"
        }
      ],
      "stateMutability": "view",
      "type": "function"
    },
    {
      "inputs": [
        {
          "internalType": "address",
          "name": "spender",
          "type": "address"
        },
        {
          "internalType": "uint256",
          "name": "amount",
          "type": "uint256"
        }
      ],
      "name": "approve",
      "outputs": [
        {
          "internalType": "bool",
          "name": "",
          "type": "bool"
        }
      ],
      "stateMutability": "nonpayable",
      "type": "function"
    },
    {
      "inputs": [
        {
          "internalType": "address",
          "name": "account",
          "type": "address"
        }
      ],
      "name": "balanceOf",
      "outputs": [
        {
          "internalType": "uint256",
          "name": "",
          "type": "uint256"
        }
      ],
      "stateMutability": "view",
      "type": "function"
    },
    {
      "inputs": [],
      "name": "decimals",
      "outputs": [
        {
          "internalType": "uint8",
          "name": "",
          "type": "uint8"
        }
      ],
      "stateMutability": "view",
      "type": "function"
    },
    {
      "inputs": [
        {
          "internalType": "address",
          "name": "spender",
          "type": "address"
        },
        {
          "internalType": "uint256",
          "name": "subtractedValue",
          "type": "uint256"
        }
      ],
      "name": "decreaseAllowance",
      "outputs": [
        {
          "internalType": "bool",
          "name": "",
          "type": "bool"
        }
      ],
      "stateMutability": "nonpayable",
      "type": "function"
    },
    {
      "inputs": [],
      "name": "getAdmin",
      "outputs": [
        {
          "internalType": "address",
          "name": "",
          "type": "address"
        }
      ],
      "stateMutability": "view",
      "type": "function"
    },
    {
      "inputs": [],
      "name": "getTokenPrice",
      "outputs": [
        {
          "internalType": "uint256",
          "name": "",
          "type": "uint256"
        }
      ],
      "stateMutability": "view",
      "type": "function"
    },
    {
      "inputs": [
        {
          "internalType": "address",
          "name": "spender",
          "type": "address"
        },
        {
          "internalType": "uint256",
          "name": "addedValue",
          "type": "uint256"
        }
      ],
      "name": "increaseAllowance",
      "outputs": [
        {
          "internalType": "bool",
          "name": "",
          "type": "bool"
        }
      ],
      "stateMutability": "nonpayable",
      "type": "function"
    },
    {
      "inputs": [],
      "name": "name",
      "outputs": [
        {
          "internalType": "string",
          "name": "",
          "type": "string"
        }
      ],
      "stateMutability": "view",
      "type": "function"
    },
    {
      "inputs": [],
      "name": "owner",
      "outputs": [
        {
          "internalType": "address",
          "name": "",
          "type": "address"
        }
      ],
      "stateMutability": "view",
      "type": "function"
    },
    {
      "inputs": [],
      "name": "renounceOwnership",
      "outputs": [],
      "stateMutability": "nonpayable",
      "type": "function"
    },
    {
      "inputs": [
        {
          "internalType": "address",
          "name": "_admin",
          "type": "address"
        }
      ],
      "name": "setAdmin",
      "outputs": [],
      "stateMutability": "nonpayable",
      "type": "function"
    },
    {
      "inputs": [
        {
          "internalType": "uint256",
          "name": "_tokenPrice",
          "type": "uint256"
        }
      ],
      "name": "setTokenprice",
      "outputs": [],
      "stateMutability": "nonpayable",
      "type": "function"
    },
    {
      "inputs": [],
      "name": "symbol",
      "outputs": [
        {
          "internalType": "string",
          "name": "",
          "type": "string"
        }
      ],
      "stateMutability": "view",
      "type": "function"
    },
    {
      "inputs": [],
      "name": "totalSupply",
      "outputs": [
        {
          "internalType": "uint256",
          "name": "",
          "type": "uint256"
        }
      ],
      "stateMutability": "view",
      "type": "function"
    },
    {
      "inputs": [
        {
          "internalType": "address",
          "name": "to",
          "type": "address"
        },
        {
          "internalType": "uint256",
          "name": "amount",
          "type": "uint256"
        }
      ],
      "name": "transfer",
      "outputs": [
        {
          "internalType": "bool",
          "name": "",
          "type": "bool"
        }
      ],
      "stateMutability": "nonpayable",
      "type": "function"
    },
    {
      "inputs": [
        {
          "internalType": "address",
          "name": "from",
          "type": "address"
        },
        {
          "internalType": "address",
          "name": "to",
          "type": "address"
        },
        {
          "internalType": "uint256",
          "name": "amount",
          "type": "uint256"
        }
      ],
      "name": "transferFrom",
      "outputs": [
        {
          "internalType": "bool",
          "name": "",
          "type": "bool"
        }
      ],
      "stateMutability": "nonpayable",
      "type": "function"
    },
    {
      "inputs": [
        {
          "internalType": "address",
          "name": "newOwner",
          "type": "address"
        }
      ],
      "name": "transferOwnership",
      "outputs": [],
      "stateMutability": "nonpayable",
      "type": "function"
    },
    {
      "inputs": [
        {
          "internalType": "uint256",
          "name": "_amount",
          "type": "uint256"
        },
        {
          "internalType": "address",
          "name": "_tokenAddress",
          "type": "address"
        }
      ],
      "name": "withdrawFromContract",
      "outputs": [],
      "stateMutability": "payable",
      "type": "function"
    },
    {
      "inputs": [
        {
          "internalType": "uint256",
          "name": "_amount",
          "type": "uint256"
        }
      ],
      "name": "withdrawNative",
      "outputs": [],
      "stateMutability": "nonpayable",
      "type": "function"
    }
  ],
  "bytecode": "0x6080604052678ac7230489e800006008553480156200001d57600080fd5b50604051620025b8380380620025b8833981810160405281019062000043919062000501565b82828160039081620000569190620007dc565b508060049081620000689190620007dc565b5050506200008b6200007f620000ee60201b60201c565b620000f660201b60201c565b33600660006101000a81548173ffffffffffffffffffffffffffffffffffffffff021916908373ffffffffffffffffffffffffffffffffffffffff16021790555080600781905550620000e53382620001bc60201b60201c565b505050620009de565b600033905090565b6000600560009054906101000a900473ffffffffffffffffffffffffffffffffffffffff16905081600560006101000a81548173ffffffffffffffffffffffffffffffffffffffff021916908373ffffffffffffffffffffffffffffffffffffffff1602179055508173ffffffffffffffffffffffffffffffffffffffff168173ffffffffffffffffffffffffffffffffffffffff167f8be0079c531659141344cd1fd0a4f28419497f9722a3daafe3b4186f6b6457e060405160405180910390a35050565b600073ffffffffffffffffffffffffffffffffffffffff168273ffffffffffffffffffffffffffffffffffffffff16036200022e576040517f08c379a0000000000000000000000000000000000000000000000000000000008152600401620002259062000924565b60405180910390fd5b62000242600083836200032960201b60201c565b806002600082825462000256919062000975565b92505081905550806000808473ffffffffffffffffffffffffffffffffffffffff1673ffffffffffffffffffffffffffffffffffffffff168152602001908152602001600020600082825401925050819055508173ffffffffffffffffffffffffffffffffffffffff16600073ffffffffffffffffffffffffffffffffffffffff167fddf252ad1be2c89b69c2b068fc378daa952ba7f163c4a11628f55a4df523b3ef83604051620003099190620009c1565b60405180910390a362000325600083836200032e60201b60201c565b5050565b505050565b505050565b6000604051905090565b600080fd5b600080fd5b600080fd5b600080fd5b6000601f19601f8301169050919050565b7f4e487b7100000000000000000000000000000000000000000000000000000000600052604160045260246000fd5b6200039c8262000351565b810181811067ffffffffffffffff82111715620003be57620003bd62000362565b5b80604052505050565b6000620003d362000333565b9050620003e1828262000391565b919050565b600067ffffffffffffffff82111562000404576200040362000362565b5b6200040f8262000351565b9050602081019050919050565b60005b838110156200043c5780820151818401526020810190506200041f565b60008484015250505050565b60006200045f6200045984620003e6565b620003c7565b9050828152602081018484840111156200047e576200047d6200034c565b5b6200048b8482856200041c565b509392505050565b600082601f830112620004ab57620004aa62000347565b5b8151620004bd84826020860162000448565b91505092915050565b6000819050919050565b620004db81620004c6565b8114620004e757600080fd5b50565b600081519050620004fb81620004d0565b92915050565b6000806000606084860312156200051d576200051c6200033d565b5b600084015167ffffffffffffffff8111156200053e576200053d62000342565b5b6200054c8682870162000493565b935050602084015167ffffffffffffffff81111562000570576200056f62000342565b5b6200057e8682870162000493565b92505060406200059186828701620004ea565b9150509250925092565b600081519050919050565b7f4e487b7100000000000000000000000000000000000000000000000000000000600052602260045260246000fd5b60006002820490506001821680620005ee57607f821691505b602082108103620006045762000603620005a6565b5b50919050565b60008190508160005260206000209050919050565b60006020601f8301049050919050565b600082821b905092915050565b6000600883026200066e7fffffffffffffffffffffffffffffffffffffffffffffffffffffffffffffffff826200062f565b6200067a86836200062f565b95508019841693508086168417925050509392505050565b6000819050919050565b6000620006bd620006b7620006b184620004c6565b62000692565b620004c6565b9050919050565b6000819050919050565b620006d9836200069c565b620006f1620006e882620006c4565b8484546200063c565b825550505050565b600090565b62000708620006f9565b62000715818484620006ce565b505050565b5b818110156200073d5762000731600082620006fe565b6001810190506200071b565b5050565b601f8211156200078c5762000756816200060a565b62000761846200061f565b8101602085101562000771578190505b6200078962000780856200061f565b8301826200071a565b50505b505050565b600082821c905092915050565b6000620007b16000198460080262000791565b1980831691505092915050565b6000620007cc83836200079e565b9150826002028217905092915050565b620007e7826200059b565b67ffffffffffffffff81111562000803576200080262000362565b5b6200080f8254620005d5565b6200081c82828562000741565b600060209050601f8311600181146200085457600084156200083f578287015190505b6200084b8582620007be565b865550620008bb565b601f19841662000864866200060a565b60005b828110156200088e5784890151825560018201915060208501945060208101905062000867565b86831015620008ae5784890151620008aa601f8916826200079e565b8355505b6001600288020188555050505b505050505050565b600082825260208201905092915050565b7f45524332303a206d696e7420746f20746865207a65726f206164647265737300600082015250565b60006200090c601f83620008c3565b91506200091982620008d4565b602082019050919050565b600060208201905081810360008301526200093f81620008fd565b9050919050565b7f4e487b7100000000000000000000000000000000000000000000000000000000600052601160045260246000fd5b60006200098282620004c6565b91506200098f83620004c6565b9250828201905080821115620009aa57620009a962000946565b5b92915050565b620009bb81620004c6565b82525050565b6000602082019050620009d86000830184620009b0565b92915050565b611bca80620009ee6000396000f3fe60806040526004361061011f5760003560e01c8063715018a6116100a05780639605f505116100645780639605f505146103d7578063a457c2d7146103f3578063a9059cbb14610430578063dd62ed3e1461046d578063f2fde38b146104aa5761011f565b8063715018a61461031857806384276d811461032f5780638da5cb5b146103585780638ecb987e1461038357806395d89b41146103ac5761011f565b806339509351116100e7578063395093511461021f5780634b94f50e1461025c5780636e9960c314610287578063704b6c02146102b257806370a08231146102db5761011f565b806306fdde0314610124578063095ea7b31461014f57806318160ddd1461018c57806323b872dd146101b7578063313ce567146101f4575b600080fd5b34801561013057600080fd5b506101396104d3565b60405161014691906111e2565b60405180910390f35b34801561015b57600080fd5b506101766004803603810190610171919061129d565b610565565b60405161018391906112f8565b60405180910390f35b34801561019857600080fd5b506101a1610588565b6040516101ae9190611322565b60405180910390f35b3480156101c357600080fd5b506101de60048036038101906101d9919061133d565b610592565b6040516101eb91906112f8565b60405180910390f35b34801561020057600080fd5b506102096105c1565b60405161021691906113ac565b60405180910390f35b34801561022b57600080fd5b506102466004803603810190610241919061129d565b6105ca565b60405161025391906112f8565b60405180910390f35b34801561026857600080fd5b50610271610601565b60405161027e9190611322565b60405180910390f35b34801561029357600080fd5b5061029c61060b565b6040516102a991906113d6565b60405180910390f35b3480156102be57600080fd5b506102d960048036038101906102d491906113f1565b610635565b005b3480156102e757600080fd5b5061030260048036038101906102fd91906113f1565b610681565b60405161030f9190611322565b60405180910390f35b34801561032457600080fd5b5061032d6106c9565b005b34801561033b57600080fd5b506103566004803603810190610351919061141e565b6106dd565b005b34801561036457600080fd5b5061036d610772565b60405161037a91906113d6565b60405180910390f35b34801561038f57600080fd5b506103aa60048036038101906103a5919061141e565b61079c565b005b3480156103b857600080fd5b506103c16107ae565b6040516103ce91906111e2565b60405180910390f35b6103f160048036038101906103ec919061144b565b610840565b005b3480156103ff57600080fd5b5061041a6004803603810190610415919061129d565b61098d565b60405161042791906112f8565b60405180910390f35b34801561043c57600080fd5b506104576004803603810190610452919061129d565b610a04565b60405161046491906112f8565b60405180910390f35b34801561047957600080fd5b50610494600480360381019061048f919061148b565b610a27565b6040516104a19190611322565b60405180910390f35b3480156104b657600080fd5b506104d160048036038101906104cc91906113f1565b610aae565b005b6060600380546104e2906114fa565b80601f016020809104026020016040519081016040528092919081815260200182805461050e906114fa565b801561055b5780601f106105305761010080835404028352916020019161055b565b820191906000526020600020905b81548152906001019060200180831161053e57829003601f168201915b5050505050905090565b600080610570610b31565b905061057d818585610b39565b600191505092915050565b6000600254905090565b60008061059d610b31565b90506105aa858285610d02565b6105b5858585610d8e565b60019150509392505050565b60006012905090565b6000806105d5610b31565b90506105f68185856105e78589610a27565b6105f1919061155a565b610b39565b600191505092915050565b6000600854905090565b6000600660009054906101000a900473ffffffffffffffffffffffffffffffffffffffff16905090565b61063d611004565b80600660006101000a81548173ffffffffffffffffffffffffffffffffffffffff021916908373ffffffffffffffffffffffffffffffffffffffff16021790555050565b60008060008373ffffffffffffffffffffffffffffffffffffffff1673ffffffffffffffffffffffffffffffffffffffff168152602001908152602001600020549050919050565b6106d1611004565b6106db6000611082565b565b6106e5611004565b80471015610728576040517f08c379a000000000000000000000000000000000000000000000000000000000815260040161071f906115da565b60405180910390fd5b3373ffffffffffffffffffffffffffffffffffffffff166108fc829081150290604051600060405180830381858888f1935050505015801561076e573d6000803e3d6000fd5b5050565b6000600560009054906101000a900473ffffffffffffffffffffffffffffffffffffffff16905090565b6107a4611004565b8060088190555050565b6060600480546107bd906114fa565b80601f01602080910402602001604051908101604052809291908181526020018280546107e9906114fa565b80156108365780601f1061080b57610100808354040283529160200191610836565b820191906000526020600020905b81548152906001019060200180831161081957829003601f168201915b5050505050905090565b610848611004565b6000819050828173ffffffffffffffffffffffffffffffffffffffff166370a08231306040518263ffffffff1660e01b815260040161088791906113d6565b602060405180830381865afa1580156108a4573d6000803e3d6000fd5b505050506040513d601f19601f820116820180604052508101906108c8919061160f565b1015610909576040517f08c379a0000000000000000000000000000000000000000000000000000000008152600401610900906115da565b60405180910390fd5b8073ffffffffffffffffffffffffffffffffffffffff1663a9059cbb33856040518363ffffffff1660e01b815260040161094492919061163c565b6020604051808303816000875af1158015610963573d6000803e3d6000fd5b505050506040513d601f19601f820116820180604052508101906109879190611691565b50505050565b600080610998610b31565b905060006109a68286610a27565b9050838110156109eb576040517f08c379a00000000000000000000000000000000000000000000000000000000081526004016109e290611730565b60405180910390fd5b6109f88286868403610b39565b60019250505092915050565b600080610a0f610b31565b9050610a1c818585610d8e565b600191505092915050565b6000600160008473ffffffffffffffffffffffffffffffffffffffff1673ffffffffffffffffffffffffffffffffffffffff16815260200190815260200160002060008373ffffffffffffffffffffffffffffffffffffffff1673ffffffffffffffffffffffffffffffffffffffff16815260200190815260200160002054905092915050565b610ab6611004565b600073ffffffffffffffffffffffffffffffffffffffff168173ffffffffffffffffffffffffffffffffffffffff1603610b25576040517f08c379a0000000000000000000000000000000000000000000000000000000008152600401610b1c906117c2565b60405180910390fd5b610b2e81611082565b50565b600033905090565b600073ffffffffffffffffffffffffffffffffffffffff168373ffffffffffffffffffffffffffffffffffffffff1603610ba8576040517f08c379a0000000000000000000000000000000000000000000000000000000008152600401610b9f90611854565b60405180910390fd5b600073ffffffffffffffffffffffffffffffffffffffff168273ffffffffffffffffffffffffffffffffffffffff1603610c17576040517f08c379a0000000000000000000000000000000000000000000000000000000008152600401610c0e906118e6565b60405180910390fd5b80600160008573ffffffffffffffffffffffffffffffffffffffff1673ffffffffffffffffffffffffffffffffffffffff16815260200190815260200160002060008473ffffffffffffffffffffffffffffffffffffffff1673ffffffffffffffffffffffffffffffffffffffff168152602001908152602001600020819055508173ffffffffffffffffffffffffffffffffffffffff168373ffffffffffffffffffffffffffffffffffffffff167f8c5be1e5ebec7d5bd14f71427d1e84f3dd0314c0f7b2291e5b200ac8c7c3b92583604051610cf59190611322565b60405180910390a3505050565b6000610d0e8484610a27565b90507fffffffffffffffffffffffffffffffffffffffffffffffffffffffffffffffff8114610d885781811015610d7a576040517f08c379a0000000000000000000000000000000000000000000000000000000008152600401610d7190611952565b60405180910390fd5b610d878484848403610b39565b5b50505050565b600073ffffffffffffffffffffffffffffffffffffffff168373ffffffffffffffffffffffffffffffffffffffff1603610dfd576040517f08c379a0000000000000000000000000000000000000000000000000000000008152600401610df4906119e4565b60405180910390fd5b600073ffffffffffffffffffffffffffffffffffffffff168273ffffffffffffffffffffffffffffffffffffffff1603610e6c576040517f08c379a0000000000000000000000000000000000000000000000000000000008152600401610e6390611a76565b60405180910390fd5b610e77838383611148565b60008060008573ffffffffffffffffffffffffffffffffffffffff1673ffffffffffffffffffffffffffffffffffffffff16815260200190815260200160002054905081811015610efd576040517f08c379a0000000000000000000000000000000000000000000000000000000008152600401610ef490611b08565b60405180910390fd5b8181036000808673ffffffffffffffffffffffffffffffffffffffff1673ffffffffffffffffffffffffffffffffffffffff16815260200190815260200160002081905550816000808573ffffffffffffffffffffffffffffffffffffffff1673ffffffffffffffffffffffffffffffffffffffff168152602001908152602001600020600082825401925050819055508273ffffffffffffffffffffffffffffffffffffffff168473ffffffffffffffffffffffffffffffffffffffff167fddf252ad1be2c89b69c2b068fc378daa952ba7f163c4a11628f55a4df523b3ef84604051610feb9190611322565b60405180910390a3610ffe84848461114d565b50505050565b61100c610b31565b73ffffffffffffffffffffffffffffffffffffffff1661102a610772565b73ffffffffffffffffffffffffffffffffffffffff1614611080576040517f08c379a000000000000000000000000000000000000000000000000000000000815260040161107790611b74565b60405180910390fd5b565b6000600560009054906101000a900473ffffffffffffffffffffffffffffffffffffffff16905081600560006101000a81548173ffffffffffffffffffffffffffffffffffffffff021916908373ffffffffffffffffffffffffffffffffffffffff1602179055508173ffffffffffffffffffffffffffffffffffffffff168173ffffffffffffffffffffffffffffffffffffffff167f8be0079c531659141344cd1fd0a4f28419497f9722a3daafe3b4186f6b6457e060405160405180910390a35050565b505050565b505050565b600081519050919050565b600082825260208201905092915050565b60005b8381101561118c578082015181840152602081019050611171565b60008484015250505050565b6000601f19601f8301169050919050565b60006111b482611152565b6111be818561115d565b93506111ce81856020860161116e565b6111d781611198565b840191505092915050565b600060208201905081810360008301526111fc81846111a9565b905092915050565b600080fd5b600073ffffffffffffffffffffffffffffffffffffffff82169050919050565b600061123482611209565b9050919050565b61124481611229565b811461124f57600080fd5b50565b6000813590506112618161123b565b92915050565b6000819050919050565b61127a81611267565b811461128557600080fd5b50565b60008135905061129781611271565b92915050565b600080604083850312156112b4576112b3611204565b5b60006112c285828601611252565b92505060206112d385828601611288565b9150509250929050565b60008115159050919050565b6112f2816112dd565b82525050565b600060208201905061130d60008301846112e9565b92915050565b61131c81611267565b82525050565b60006020820190506113376000830184611313565b92915050565b60008060006060848603121561135657611355611204565b5b600061136486828701611252565b935050602061137586828701611252565b925050604061138686828701611288565b9150509250925092565b600060ff82169050919050565b6113a681611390565b82525050565b60006020820190506113c1600083018461139d565b92915050565b6113d081611229565b82525050565b60006020820190506113eb60008301846113c7565b92915050565b60006020828403121561140757611406611204565b5b600061141584828501611252565b91505092915050565b60006020828403121561143457611433611204565b5b600061144284828501611288565b91505092915050565b6000806040838503121561146257611461611204565b5b600061147085828601611288565b925050602061148185828601611252565b9150509250929050565b600080604083850312156114a2576114a1611204565b5b60006114b085828601611252565b92505060206114c185828601611252565b9150509250929050565b7f4e487b7100000000000000000000000000000000000000000000000000000000600052602260045260246000fd5b6000600282049050600182168061151257607f821691505b602082108103611525576115246114cb565b5b50919050565b7f4e487b7100000000000000000000000000000000000000000000000000000000600052601160045260246000fd5b600061156582611267565b915061157083611267565b92508282019050808211156115885761158761152b565b5b92915050565b7f6e6f745f656e6f7567685f66756e647300000000000000000000000000000000600082015250565b60006115c460108361115d565b91506115cf8261158e565b602082019050919050565b600060208201905081810360008301526115f3816115b7565b9050919050565b60008151905061160981611271565b92915050565b60006020828403121561162557611624611204565b5b6000611633848285016115fa565b91505092915050565b600060408201905061165160008301856113c7565b61165e6020830184611313565b9392505050565b61166e816112dd565b811461167957600080fd5b50565b60008151905061168b81611665565b92915050565b6000602082840312156116a7576116a6611204565b5b60006116b58482850161167c565b91505092915050565b7f45524332303a2064656372656173656420616c6c6f77616e63652062656c6f7760008201527f207a65726f000000000000000000000000000000000000000000000000000000602082015250565b600061171a60258361115d565b9150611725826116be565b604082019050919050565b600060208201905081810360008301526117498161170d565b9050919050565b7f4f776e61626c653a206e6577206f776e657220697320746865207a65726f206160008201527f6464726573730000000000000000000000000000000000000000000000000000602082015250565b60006117ac60268361115d565b91506117b782611750565b604082019050919050565b600060208201905081810360008301526117db8161179f565b9050919050565b7f45524332303a20617070726f76652066726f6d20746865207a65726f2061646460008201527f7265737300000000000000000000000000000000000000000000000000000000602082015250565b600061183e60248361115d565b9150611849826117e2565b604082019050919050565b6000602082019050818103600083015261186d81611831565b9050919050565b7f45524332303a20617070726f766520746f20746865207a65726f20616464726560008201527f7373000000000000000000000000000000000000000000000000000000000000602082015250565b60006118d060228361115d565b91506118db82611874565b604082019050919050565b600060208201905081810360008301526118ff816118c3565b9050919050565b7f45524332303a20696e73756666696369656e7420616c6c6f77616e6365000000600082015250565b600061193c601d8361115d565b915061194782611906565b602082019050919050565b6000602082019050818103600083015261196b8161192f565b9050919050565b7f45524332303a207472616e736665722066726f6d20746865207a65726f20616460008201527f6472657373000000000000000000000000000000000000000000000000000000602082015250565b60006119ce60258361115d565b91506119d982611972565b604082019050919050565b600060208201905081810360008301526119fd816119c1565b9050919050565b7f45524332303a207472616e7366657220746f20746865207a65726f206164647260008201527f6573730000000000000000000000000000000000000000000000000000000000602082015250565b6000611a6060238361115d565b9150611a6b82611a04565b604082019050919050565b60006020820190508181036000830152611a8f81611a53565b9050919050565b7f45524332303a207472616e7366657220616d6f756e742065786365656473206260008201527f616c616e63650000000000000000000000000000000000000000000000000000602082015250565b6000611af260268361115d565b9150611afd82611a96565b604082019050919050565b60006020820190508181036000830152611b2181611ae5565b9050919050565b7f4f776e61626c653a2063616c6c6572206973206e6f7420746865206f776e6572600082015250565b6000611b5e60208361115d565b9150611b6982611b28565b602082019050919050565b60006020820190508181036000830152611b8d81611b51565b905091905056fea2646970667358221220fde8d6ab6bf7e7d884a2eac6f281edca6f9ec9befff91fc91c3bafad18a148e164736f6c63430008120033",
  "linkReferences": {},
  "deployedLinkReferences": {}
}